:020000040800F2
:10000000B00700204D02000807070008FF0600089F
:1000100003070008F50200080909000800000000B5
:100020000000000000000000000000000B070008B6
:10003000F902000800000000090700080D07000889
:1000400067020008670200086702000867020008EC
:1000500067020008670200086702000867020008DC
:1000600067020008670200086702000867020008CC
:1000700067020008670200086702000867020008BC
:1000800067020008670200086702000867020008AC
:10009000670200086702000867020008670200089C
:1000A000670200086702000867020008670200088C
:1000B000670200086702000867020008670200087C
:1000C000670200086702000867020008670200086C
:1000D00067020008B9080008670200086702000804
:1000E000670200086702000867020008670200084C
:1000F000670200086702000867020008670200083C
:10010000670200086702000867020008670200082B
:100110006702000867020008790700086702000804
:10012000670200086702000867020008670200080B
:1001300067020008670200086702000867020008FB
:1001400067020008670200086702000867020008EB
:1001500067020008670200086702000867020008DB
:1001600067020008670200086702000867020008CB
:10017000670200086702000867020008000000002C
:1001800067020008670200086702000867020008AB
:10019000670200086702000867020008670200089B
:1001A00067020008670200086702000800F002F812
:1001B00000F03CF80AA090E8000C82448344AAF1C5
:1001C0000107DA4501D100F031F8AFF2090EBAE8C3
:1001D0000F0013F0010F18BFFB1A43F0010318477B
:1001E0004007000060070000103A24BF78C878C1BB
:1001F000FAD8520724BF30C830C144BF04680C602D
:10020000704700000023002400250026103A28BF74
:1002100078C1FBD8520728BF30C148BF0B60704778
:100220001FB500F077FB1FBD10B510BD00F033F80F
:100230001146FFF7F5FF00F06BFB00F051F803B437
:10024000FFF7F2FF03BC00F061FB000009488047A4
:1002500009480047FEE7FEE7FEE7FEE7FEE7FEE7A8
:10026000FEE7FEE7FEE7FEE704480549054A064BC0
:100270007047000015070008AD010008B00100201C
:10028000B0070020B0030020B00300207047704783
:10029000704770477047754600F028F8AE46050075
:1002A0006946534620F00700854618B020B5FFF791
:1002B000DBFFBDE820404FF000064FF000074FF095
:1002C00000084FF0000B21F00701AC46ACE8C00974
:1002D000ACE8C009ACE8C009ACE8C0098D4670477D
:1002E0000446AFF300802046FFF7A9FF004870479F
:1002F0005001002000BFFEE7704700000248006880
:10030000401C01490860704700000020704770479A
:10031000704710B5044620680069C0F34000D8B1AA
:100320002068C068C0F34000B0B16FF002002168DF
:100330000861012020762068806900F0030018B170
:100340002046FFF7E5FF05E0204600F0ADF8204627
:1003500000F0ABF80020207620680069C0F3800030
:10036000D8B12068C068C0F38000B0B16FF004005D
:1003700021680861022020762068806900F44070BE
:1003800018B12046FFF7C4FF05E0204600F08CF8C6
:10039000204600F08AF80020207620680069C0F32B
:1003A000C000D8B12068C068C0F3C000B0B16FF021
:1003B000080021680861042020762068C06900F0E8
:1003C000030018B12046FFF7A3FF05E0204600F028
:1003D0006BF8204600F069F800202076206800695C
:1003E000C0F30010D8B12068C068C0F30010B0B1ED
:1003F0006FF0100021680861082020762068C0692D
:1004000000F4407018B12046FFF782FF05E0204657
:1004100000F04AF8204600F048F8002020762068D6
:10042000006900F0010058B12068C06800F00100C8
:1004300030B16FF0010021680861204600F036F805
:1004400020680069C0F3C01058B12068C068C0F3CC
:10045000C01030B16FF08000216808612046FFF7BE
:1004600055FF20680069C0F3801058B12068C0684B
:10047000C0F3801030B16FF0400021680861204661
:1004800000F019F820680069C0F3401058B12068E6
:10049000C068C0F3401030B16FF0200021680861DF
:1004A0002046FFF734FF10BD7047704710B5044673
:1004B000FFF724FF10BD704770470146002200235C
:1004C00091F8392091F83A3042EA03007047F8B5C4
:1004D0000446002500262068006800F00105206819
:1004E000C06800F480767DB176B100BF0020009036
:1004F00020680068009020684068009000BF00BF3E
:10050000E06B40F00100E06320680068C0F3400544
:100510002068406900F001067DB176B100BF00207F
:10052000009020680068009020684068009000BF3C
:1005300000BFE06B40F00400E06320680068C0F397
:1005400080052068406900F001067DB176B100BFEA
:1005500000200090206800680090206840680090AB
:1005600000BF00BFE06B40F00200E063206800685D
:10057000C0F3C0052068406900F001067DB176B186
:1005800000BF00200090206800680090206840684C
:10059000009000BF00BFE06B40F00800E0632068FF
:1005A0000068C0F340152068C06800F020061DB147
:1005B00016B1204600F0F8F820680068C0F3C015B6
:1005C0002068C06800F080061DB116B1204600F01A
:1005D0003EF920680068C0F380152068C06800F00C
:1005E00040061DB116B1204600F0CEF8E06B38B1E0
:1005F000202084F8390084F83A002046FFF75CFF99
:10060000F8BD10B5034693F83A0020282FD101B168
:100610000AB9012010BD00BF93F83800012801D1AC
:100620000220F7E7012083F8380000BF99629A851D
:10063000DA850020D863222083F83A001868C06861
:1006400040F480701C68E0601868406940F0010068
:100650001C68606100BF002083F8380000BF186884
:10066000C06840F020001C68E0600020D2E7022053
:10067000D0E700001D4A0168914236D11C49098823
:1006800001F4004189BB1A49098801F4804171B124
:10069000184909780A2903D00021154A118024E05D
:1006A0001349098841F40041114A11801DE01149A4
:1006B00009780D2906D10E49098841F480410C4A78
:1006C000118012E00B490978094A1288C2F30D0221
:1006D000094B995406490988491C054A118011465D
:1006E0000988C72901DD00211180704700100140F1
:1006F000080000200A00002048000020704700BFCA
:10070000FEE700BFFEE770477047704710B5FFF780
:10071000F5FD10BD1448006840F4700012490860EF
:100720001248006840F001001049086000200F499D
:10073000083108600D4800680D4908400B49086001
:100740000C48091D0860081F006820F48020091F5C
:100750000860002005490C3108604FF00060024934
:10076000803908607047000088ED00E000380240E2
:10077000FFFFF6FE1030002410B50248FFF7C9FD58
:1007800010BD00000C00002010B504462068C068B1
:1007900020F040002168C860202084F839002046FD
:1007A000FFF7ACFF002010BD70B5044694F83A0086
:1007B00022284AD1A068B0F5805F13D1A56A2069CC
:1007C00040B920684068C0F308002880A06A801CF7
:1007D000A06219E020684068C0B22880A06A401C6E
:1007E000A06211E0206938B920684068C1B2A26AED
:1007F000501CA062117007E02068406800F07F0183
:10080000A26A501CA0621170E08D401E80B2E0858B
:10081000C8B92068C06820F020002168C86020683E
:10082000C06820F480702168C8602068406920F0AA
:10083000010021684861202084F83A002046FFF733
:1008400019FF002070BD0020FCE70220FAE70146F6
:1008500091F8390021282CD18868B0F5805F0FD13C
:100860000A6A1088C0F308000B685860086918B954
:10087000086A801C086209E0086A401C086205E0FA
:100880000B6A581C086218780B685860C88C401EA8
:1008900080B2C88458B90868C06820F080000B682E
:1008A000D8600868C06840F040000B68D86000203D
:1008B00070470220FCE7000070B500240F4D10487F
:1008C000FFF705FE00BF03E0641CAC4200D904E062
:1008D0000B48FFF7F2FD2028F6D100BF002403E00B
:1008E000641CAC4200D906E0012206490448FFF727
:1008F00088FE0028F4D100BF70BD0000FFFF01009A
:10090000100100200A00002000BFFEE700BF704772
:10091000002070474FF04070E1EE100A7047000071
:1009200040090008000000200C000000E801000859
:100930004C0900080C000020A40700000402000875
:0C094000000000000000000000000000AB
:04000005080001AD41
:00000001FF
