:020000040800F2
:10000000880700204D020008530E0008030E000868
:10001000510E0008F5020008A510000800000000BD
:10002000000000000000000000000000770E000843
:10003000F702000800000000750E0008FD0E000821
:1000400067020008670200086702000867020008EC
:1000500067020008670200086702000867020008DC
:1000600067020008670200086702000867020008CC
:1000700067020008670200086702000867020008BC
:1000800067020008670200086702000867020008AC
:10009000670200086702000867020008670200089C
:1000A000670200086702000867020008670200088C
:1000B000670200086702000867020008670200087C
:1000C000670200086702000867020008670200086C
:1000D0006702000861100008670200086702000854
:1000E000670200086702000867020008670200084C
:1000F000670200086702000867020008670200083C
:10010000670200086702000867020008670200082B
:10011000670200086702000867020008670200081B
:10012000670200086702000867020008670200080B
:1001300067020008670200086702000867020008FB
:1001400067020008670200086702000867020008EB
:1001500067020008670200086702000867020008DB
:1001600067020008670200086702000867020008CB
:10017000670200086702000867020008000000002C
:1001800067020008670200086702000867020008AB
:10019000670200086702000867020008670200089B
:1001A00067020008670200086702000800F002F812
:1001B00000F03CF80AA090E8000C82448344AAF1C5
:1001C0000107DA4501D100F031F8AFF2090EBAE8C3
:1001D0000F0013F0010F18BFFB1A43F0010318477B
:1001E000A40F0000C40F0000103A24BF78C878C1E3
:1001F000FAD8520724BF30C830C144BF04680C602D
:10020000704700000023002400250026103A28BF74
:1002100078C1FBD8520728BF30C148BF0B60704778
:100220001FB500F0A1FF1FBD10B510BD00F033F8E1
:100230001146FFF7F5FF00F069FF00F051F803B435
:10024000FFF7F2FF03BC00F02EFF000009488047D3
:1002500009480047FEE7FEE7FEE7FEE7FEE7FEE7A8
:10026000FEE7FEE7FEE7FEE704480549054A064BC0
:1002700070470000010F0008AD0100088801002050
:1002800088070020880300208803002070477047FB
:10029000704770477047754600F028F8AE46050075
:1002A0006946534620F00700854618B020B5FFF791
:1002B000DBFFBDE820404FF000064FF000074FF095
:1002C00000084FF0000B21F00701AC46ACE8C00974
:1002D000ACE8C009ACE8C009ACE8C0098D4670477D
:1002E0000446AFF300802046FFF7A9FF004870479F
:1002F00028010020FEE770472DE9F84FDFF8A091B4
:10030000002209F1040A0AF1040B4FF00F080BF167
:10031000040E01260B6896403340B34271D14C68FD
:10032000022C01D0122C11D1D40800EB84073D6AB5
:100330005407E40E08FA04FC25EA0C05D1F810C0B5
:100340000CFA04FC4CEA050CC7F820C007685400FE
:10035000032591F804C0A5400CF0030CAF430CFA40
:1003600004FC4CEA070CC0F800C04F68012F05D010
:10037000022F03D0112F01D0122F11D18768D1F88D
:100380000CC0AF430CFA04FC4CEA070CC0F808C0E0
:100390004768B7430E79C6F3001696403E43466061
:1003A000C668AE438D68A5403543C5604C68E4001F
:1003B0006FD53C4C256845F480452560246822F0C3
:1003C000030504F480440094374C2E19D6F80878BD
:1003D0009407250F08FA05F4A743344CA04201D135
:1003E00000242EE0324CA04201D1012429E0314CFE
:1003F000A04201D1022424E02F4CA04202D10324C8
:100400001FE046E02D4CA04201D1042419E02C4C01
:10041000A04201D1052414E02A4CA04201D10624B7
:100420000FE0294CA04201D107240AE0274CA0424A
:1004300001D1082405E0264CA04201D1092400E0A6
:100440000A24AC403C43C6F80848D9F800404D4661
:100450004E689C43F60300D51C432C60DAF800403C
:1004600055464E689C43B60300D51C432C60DBF810
:1004700000405D464E689C43F60200D51C432C604C
:10048000DEF8004075464E689C43B60200D51C431A
:100490002C60521C102AFFF43CAFBDE8F88F00001E
:1004A000003C01404438024000300140000002405E
:1004B0000004024000080240000C0240001002400C
:1004C0000014024000180240001C024000200240BC
:1004D000002402400AB1816170470904FBE7000073
:1004E00001480068704700001C00002002480168B5
:1004F000491C0160704700001C0000200B4810B52B
:10050000016841F400710160016841F4806101609B
:10051000016841F480710160052000F03BF80F2074
:1005200000F006F800F015F8002010BD003C024075
:1005300010B5044600F088F94FF47A71B0FBF1F081
:1005400000F06CFB00222146501E00F003F8002052
:1005500010BD7047F0B40E4B1B68C3F30223C3F108
:100560000704042C00D904241D1D072D01D20023EB
:1005700000E0DB1E012606FA04F56D1E0D409D40CD
:100580009E40761E164045EA0601F0BC00F062BCB3
:100590000CED00E0064A00F0070110684FF6FF037B
:1005A000184040EA012003490843106070470000EA
:1005B0000CED00E00000FA052DE9F8431D48016844
:1005C00041F0805101600068012700F080500090E8
:1005D000380490FAA0F0DFF86080B0FA80F048F8B4
:1005E0002070FFF77DFF04464FF47A75134E04E048
:1005F000FFF776FF001BA84213D87068C003F7D539
:100600004FF4003090FAA0F0B0FA80F048F8207073
:10061000FFF766FF044607E0FFF762FF001BA842F2
:1006200002D90320BDE8F88370688003F4D5002068
:10063000F8E700004038024000000E420070004021
:100640002DE9F05FDFF8F8A104460F46DAF8000064
:10065000DFF8F08100F00F02C8B27A49814641F21A
:10066000883608F10808BA4261D202468AF80020AA
:10067000DAF8000000F00F00B8427DD12078800742
:1006800007D5D8F80020A36822F0F0021A43C8F872
:1006900000202078C0072DD0606801281AD00228D9
:1006A0001BD0032819D009688907002964DAD8F813
:1006B0000010474621F003010143C8F80010FFF77E
:1006C0000FFF0546606801280FD0022818D00328C4
:1006D0001CD027E009688903E7E709688901E4E796
:1006E000FFF7FEFE401BB04258D83868C0F38100C7
:1006F0000128F5D188E0FFF7F3FE401BB0424DD84A
:100700003868C0F381000228F5D17DE03868FFF732
:10071000E7FE401BB042F9D940E0FFF7E1FE401B85
:10072000B0423BD8386810F00C0FF6D16CE020785E
:10073000800707D5D8F80020A36822F0F0021A43FA
:10074000C8F800202078C0074CD06068012828D065
:10075000022829D0032827D009688907002949DA07
:10076000D8F8002022F003020243C8F80020FFF767
:10077000B7FE0546606800E03CE001281DD0022875
:1007800029D0032838D0B3464646306810F00C0F05
:1007900028D0FFF7A5FE411B5945F6D90320BDE837
:1007A000F09F09688903D9E709688901D6E7FFF74F
:1007B00097FE411B594502D9F0E7B34646463068DB
:1007C000C0F381000128F2D10CE0FFF789FE411B44
:1007D000594502D9E2E7B34646463068C0F3810086
:1007E0000228F2D18AF80090DAF8000000F00F0039
:1007F000B84209D00120D2E744462068FFF770FED6
:10080000401BB042F9D9C9E72078400707D5D8F88E
:100810000010E26821F4E0511143C8F8001020787C
:10082000000708D5D8F80010226921F4604141EA98
:10083000C201C8F800100F20FFF77AFE0020AEE7D3
:10084000003C02400038024010B500F017F808499B
:100850000968F02292FAA2F201F0F001B2FA82F2F3
:10086000D140044A515CC8400349086010BD0000F3
:1008700008380240721100080000002030B5194805
:10088000006810F00C01184812D0441004290ED052
:1008900008290DD1134A121F1168136801F03F0196
:1008A0005D0247F6C07304D5B4FBF1F003E02046C7
:1008B00030BDB0FBF1F01168194093FAA3F3B3FA1D
:1008C00083F3D940484311684FF4403292FAA2F2C0
:1008D00001F44031B2FA82F2D140491C4900B0FB28
:1008E000F1F030BD083802400024F4002DE9F84F43
:1008F00004460078DFF8F8A2BE4DC0074FF00006AE
:1009000046D0DAF800105046C1F38101012908D021
:100910000068C0F3810002280AD1281D0068400247
:1009200006D52868800333D56068002871D02FE091
:10093000DFF8C08208F1020888F80060FFF7D0FDF8
:10094000074604E0FFF7CCFDC01B64287AD828686E
:100950008003F7D4207988F80000606860B1FFF761
:10096000BFFD074604E0FFF7BBFDC01B6428EDD8C0
:1009700028688003F7D50BE0FFF7B2FD074604E0D7
:10098000FFF7AEFDC01B6428E0D828688003F7D4C9
:100990002078DFF86482800744D5DAF800105046EA
:1009A00011F00C0F4FF0F80909D00068C0F3810076
:1009B00002280BD18E48001F0068400206D4286828
:1009C000800714D5E068012823D110E0E068D0B199
:1009D0000120C8F80000FFF783FD074604E0FFF799
:1009E0007FFDC01B6428B1D828688007F7D5286828
:1009F00099FAA9F22169B2FA82F220F0F800914046
:100A0000084328600EE0C8F80060FFF769FD07465C
:100A100005E0EAE0FFF764FDC01B642812D82868EF
:100A20008007F7D42078000725D5DFF8C4917348F4
:100A3000616909F16C0981B101210160FFF750FD85
:100A4000074605E07EE0FFF74BFDC01B642879D820
:100A5000D9F800008007F6D50DE00660FFF740FDED
:100A6000074604E0FFF73CFDC01B64286AD8D9F8AC
:100A700000008007F6D42078400753D55C48383012
:100A8000016841F0805101600068DFF8749100F066
:100A900080500090D9F8001041F48071C9F800101E
:100AA000FFF71EFD074604E0FFF71AFDC01B642890
:100AB00048D8D9F80000C005F6D5DFF834B10BF1FD
:100AC000680B8BF80060FFF70BFD074641F2883991
:100AD00004E0FFF705FDC11B49457ED8DBF80000A7
:100AE0008007F6D4207A8BF80000A06868B1FFF781
:100AF000F7FC074604E0FFF7F3FCC11B49456CD83F
:100B0000DBF800008007F6D50CE0FFF7E9FC0746AC
:100B100004E0FFF7E5FCC11B49455ED8DBF80000A7
:100B20008007F6D4A069E8B3DAF80010C1F38101B8
:100B300002295AD0022806D0C8F86060FFF7D0FC1E
:100B400004464DE049E04746C8F86060FFF7C8FC3E
:100B5000064604E0FFF7C4FC801B64283DD82868E3
:100B60008001F7D4D4E90710014347F6C07090FA2A
:100B7000A0F0626AB0FA80F08240A06A4FF0FF33C2
:100B800003EB50004FF4403393FAA3F3B3FA83F32B
:100B90009840024311434FF0706292FAA2F2B2FA07
:100BA00082F200E01FE0E06A904001431048001F1D
:100BB000016001203866FFF793FC044604E0FFF76C
:100BC0008FFC001B642808D828688001F7D50AE04C
:100BD000FFF786FC001B642802D90320BDE8F88FCC
:100BE00028688001F4D40020F8E70120F6E700002F
:100BF000083802400038024000004742800E474259
:100C0000007000404FF0E0210428086903D020F074
:100C100004000861704740F00400FAE710B5401E78
:100C2000B0F1807F01D3012010BD4FF0E02460615E
:100C30000F21601700F00EF90020A061072020614D
:100C4000002010BD704790F83900704738B5016832
:100C500004460868CA68C0F3000002F4807238B124
:100C600032B1086848680090E06B40F00100E06332
:100C700008684A69C0F3400002F0010238B132B19D
:100C8000086848680090E06B40F00400E063086882
:100C90004A69C0F3800002F0010238B132B108683D
:100CA00048680090E06B40F00200E06308684A6921
:100CB000C0F3C00002F0010238B132B108684868E0
:100CC0000090E06B40F00800E0630868C968C0F37A
:100CD000401001F0200118B111B1204600F03AF99E
:100CE00020680168C068C1F3C01100F0800019B12C
:100CF00010B1204600F081F921680868CA68C0F385
:100D0000801002F04002012568B162B1CA68204635
:100D100022F04002CA6094F8391032290CD080F8D1
:100D2000395000F06DF8E06B002804D084F8395099
:100D30002046FFF787FF38BD222180F83910F0E701
:100D400090F83930012B01D0122B2BD131B32AB3BB
:100D500090F83830012B25D0012380F8383081629B
:100D60008285C2850022C26390F83910122917D0FB
:100D7000222180F839100168CB6843F48073CB607E
:100D800001684B6943F001034B6180F8382000682B
:100D9000C16841F02001C160002070470120704708
:100DA0003221E6E70220704730B5006811498842D9
:100DB0000CD1114A5088010408D411464404097822
:100DC0004FF0000306D50A2901D0538030BD40F40E
:100DD00000400DE00D2909D0C0F30D04074D401C63
:100DE00080B229555080C728EFD830BD40F48040EC
:100DF000508030BD0010014018000020200000206D
:100E00007047FEE7104810B5016886B041F0020156
:100E100001600068012100F0020005900320CDE987
:100E20000210CDE90001094C69462046FFF764FA3B
:100E3000012211462046FFF74DFB012202212046E8
:100E4000FFF748FB06B010BD3038024000040240F6
:100E5000FEE770470907090E002806DA00F00F00C8
:100E600000F1E02080F8141D704700F1E02080F8C8
:100E7000001470477047704770B51E4C92B0002543
:100E8000266846F080562660246804F08054119449
:100E9000194C266846F44046266024680DF1240C5F
:100EA00004F4404411940124009401940224069413
:100EB0008CE80D006605CDE907616846FFF716FD71
:100EC00000B1FEE7FFF778FB00B1FEE70CA90F20A9
:100ED00081E831004FF4A0500F904FF480501090F3
:100EE00005210CA8FFF7ACFB002800D0FEE712B0EC
:100EF00070BD00004038024000700040FFF7F6BAB5
:100F00001048016841F4700101600F48016841F028
:100F1000010101600C4A00210832116002680B4B8C
:100F20001A400260031D0A4A1A60026822F48022F5
:100F3000026005480C30016002495806803908609B
:100F40007047000088ED00E000380240FFFFF6FE29
:100F50001030002410B590F83910222903D032291E
:100F600001D0022010BD8168B1F5805F11D0016908
:100F7000002901681FD0496801F07F03816A4A1C7B
:100F800082620B70C18D491E0904090CC18518D0FD
:100F90002FE00269816A002A0268526805D0D2B245
:100FA0000A80816A491C8162ECE7C2F308020A8068
:100FB000816A891CF7E74A68816A4B1C83620A7060
:100FC000E0E70168CA6822F02002CA6090F8391090
:100FD000322910D00168CA6822F48072CA600168A0
:100FE0004A6922F001024A61012180F83910FFF7B5
:100FF000DBFE002010BD1221F7E790F8391012290E
:1010000003D0322901D0022070478168B1F5805F9A
:10101000016A0BD04A1C0262026809785160C18CD7
:10102000491E0904090CC1840ED017E00988026822
:10103000C1F30801516001690029016A02D0491C0D
:101040000162ECE7891CFBE70168CA6822F08002B4
:10105000CA600068C16841F04001C160002070476B
:1010600070B500240C4D0D48FFF7F0FD02E0641C44
:10107000AC4204D80948FFF7E6FD0128F7D1002467
:1010800002E0641CAC4206D8012205490348FFF780
:1010900057FE0028F5D170BDFFFF0100E8000020D9
:1010A00018000020FEE7704710B504460420FFF743
:1010B000A9FD0148046010BD1400002070B505466C
:1010C00000244FF47A7603E0304600F005F8641C03
:1010D000AC42F9D370BD000070B54FF0E02500219F
:1010E0006C69094AAB6912685043AA699A42FCD0FC
:1010F00002D2A3EB020302E0A4EB0206334419443C
:1011000013468142F1D370BD14000020FFF7F6F9B9
:101110000823022219214FF4B470FFF7ADFEB4206A
:10112000FFF7C2FFFFF76EFE0E4D4FF4FA74002278
:1011300002212846FFF7CEF9012211462846FFF783
:10114000C9F92046FFF7BAFF012202212846FFF71E
:10115000C1F9002201212846FFF7BCF92046FFF71C
:10116000ADFFE4E7000402404FF04070E1EE100AEA
:101170007047000000000102030401020304060797
:1011800008090000A4110008000000202000000051
:10119000E8010008C41100082000002068070000D2
:1011A000040200080024F400000000000000000019
:1011B0000102030406070809000000000000000007
:0411C000000000002B
:04000005080001AD41
:00000001FF
